{
  "_format": "hh-sol-artifact-1",
  "contractName": "Group11Token",
  "sourceName": "contracts/Group11Token.sol",
  "abi": [
    {
      "inputs": [
        {
          "internalType": "uint256",
          "name": "initialSupply",
          "type": "uint256"
        }
      ],
      "stateMutability": "nonpayable",
      "type": "constructor"
    },
    {
      "anonymous": false,
      "inputs": [
        {
          "indexed": true,
          "internalType": "address",
          "name": "owner",
          "type": "address"
        },
        {
          "indexed": true,
          "internalType": "address",
          "name": "spender",
          "type": "address"
        },
        {
          "indexed": false,
          "internalType": "uint256",
          "name": "value",
          "type": "uint256"
        }
      ],
      "name": "Approval",
      "type": "event"
    },
    {
      "anonymous": false,
      "inputs": [
        {
          "indexed": true,
          "internalType": "address",
          "name": "to",
          "type": "address"
        },
        {
          "indexed": false,
          "internalType": "uint256",
          "name": "amount",
          "type": "uint256"
        }
      ],
      "name": "ETHWithdrawn",
      "type": "event"
    },
    {
      "anonymous": false,
      "inputs": [
        {
          "indexed": false,
          "internalType": "string",
          "name": "reason",
          "type": "string"
        }
      ],
      "name": "SaleEnded",
      "type": "event"
    },
    {
      "anonymous": false,
      "inputs": [
        {
          "indexed": true,
          "internalType": "address",
          "name": "buyer",
          "type": "address"
        },
        {
          "indexed": false,
          "internalType": "uint256",
          "name": "amount",
          "type": "uint256"
        },
        {
          "indexed": false,
          "internalType": "uint256",
          "name": "pricePaidPerToken",
          "type": "uint256"
        }
      ],
      "name": "TokensPurchased",
      "type": "event"
    },
    {
      "anonymous": false,
      "inputs": [
        {
          "indexed": true,
          "internalType": "address",
          "name": "from",
          "type": "address"
        },
        {
          "indexed": true,
          "internalType": "address",
          "name": "to",
          "type": "address"
        },
        {
          "indexed": false,
          "internalType": "uint256",
          "name": "value",
          "type": "uint256"
        }
      ],
      "name": "Transfer",
      "type": "event"
    },
    {
      "inputs": [],
      "name": "MAX_SALE_PERCENT",
      "outputs": [
        {
          "internalType": "uint256",
          "name": "",
          "type": "uint256"
        }
      ],
      "stateMutability": "view",
      "type": "function"
    },
    {
      "inputs": [],
      "name": "PRICE_TIER1",
      "outputs": [
        {
          "internalType": "uint256",
          "name": "",
          "type": "uint256"
        }
      ],
      "stateMutability": "view",
      "type": "function"
    },
    {
      "inputs": [],
      "name": "PRICE_TIER2",
      "outputs": [
        {
          "internalType": "uint256",
          "name": "",
          "type": "uint256"
        }
      ],
      "stateMutability": "view",
      "type": "function"
    },
    {
      "inputs": [],
      "name": "SALE_DURATION",
      "outputs": [
        {
          "internalType": "uint256",
          "name": "",
          "type": "uint256"
        }
      ],
      "stateMutability": "view",
      "type": "function"
    },
    {
      "inputs": [
        {
          "internalType": "address",
          "name": "_owner",
          "type": "address"
        },
        {
          "internalType": "address",
          "name": "spender",
          "type": "address"
        }
      ],
      "name": "allowance",
      "outputs": [
        {
          "internalType": "uint256",
          "name": "",
          "type": "uint256"
        }
      ],
      "stateMutability": "view",
      "type": "function"
    },
    {
      "inputs": [
        {
          "internalType": "address",
          "name": "spender",
          "type": "address"
        },
        {
          "internalType": "uint256",
          "name": "amount",
          "type": "uint256"
        }
      ],
      "name": "approve",
      "outputs": [
        {
          "internalType": "bool",
          "name": "",
          "type": "bool"
        }
      ],
      "stateMutability": "nonpayable",
      "type": "function"
    },
    {
      "inputs": [
        {
          "internalType": "address",
          "name": "account",
          "type": "address"
        }
      ],
      "name": "balanceOf",
      "outputs": [
        {
          "internalType": "uint256",
          "name": "",
          "type": "uint256"
        }
      ],
      "stateMutability": "view",
      "type": "function"
    },
    {
      "inputs": [],
      "name": "buyTokens",
      "outputs": [],
      "stateMutability": "payable",
      "type": "function"
    },
    {
      "inputs": [],
      "name": "decimals",
      "outputs": [
        {
          "internalType": "uint8",
          "name": "",
          "type": "uint8"
        }
      ],
      "stateMutability": "view",
      "type": "function"
    },
    {
      "inputs": [],
      "name": "endSaleManually",
      "outputs": [],
      "stateMutability": "nonpayable",
      "type": "function"
    },
    {
      "inputs": [],
      "name": "getCurrentPrice",
      "outputs": [
        {
          "internalType": "uint256",
          "name": "",
          "type": "uint256"
        }
      ],
      "stateMutability": "view",
      "type": "function"
    },
    {
      "inputs": [],
      "name": "getTokensAvailableForSale",
      "outputs": [
        {
          "internalType": "uint256",
          "name": "",
          "type": "uint256"
        }
      ],
      "stateMutability": "view",
      "type": "function"
    },
    {
      "inputs": [],
      "name": "name",
      "outputs": [
        {
          "internalType": "string",
          "name": "",
          "type": "string"
        }
      ],
      "stateMutability": "view",
      "type": "function"
    },
    {
      "inputs": [],
      "name": "owner",
      "outputs": [
        {
          "internalType": "address",
          "name": "",
          "type": "address"
        }
      ],
      "stateMutability": "view",
      "type": "function"
    },
    {
      "inputs": [],
      "name": "saleStartTime",
      "outputs": [
        {
          "internalType": "uint256",
          "name": "",
          "type": "uint256"
        }
      ],
      "stateMutability": "view",
      "type": "function"
    },
    {
      "inputs": [],
      "name": "symbol",
      "outputs": [
        {
          "internalType": "string",
          "name": "",
          "type": "string"
        }
      ],
      "stateMutability": "view",
      "type": "function"
    },
    {
      "inputs": [],
      "name": "totalSupply",
      "outputs": [
        {
          "internalType": "uint256",
          "name": "",
          "type": "uint256"
        }
      ],
      "stateMutability": "view",
      "type": "function"
    },
    {
      "inputs": [],
      "name": "totalTokensSold",
      "outputs": [
        {
          "internalType": "uint256",
          "name": "",
          "type": "uint256"
        }
      ],
      "stateMutability": "view",
      "type": "function"
    },
    {
      "inputs": [
        {
          "internalType": "address",
          "name": "to",
          "type": "address"
        },
        {
          "internalType": "uint256",
          "name": "amount",
          "type": "uint256"
        }
      ],
      "name": "transfer",
      "outputs": [
        {
          "internalType": "bool",
          "name": "",
          "type": "bool"
        }
      ],
      "stateMutability": "nonpayable",
      "type": "function"
    },
    {
      "inputs": [
        {
          "internalType": "address",
          "name": "from",
          "type": "address"
        },
        {
          "internalType": "address",
          "name": "to",
          "type": "address"
        },
        {
          "internalType": "uint256",
          "name": "amount",
          "type": "uint256"
        }
      ],
      "name": "transferFrom",
      "outputs": [
        {
          "internalType": "bool",
          "name": "",
          "type": "bool"
        }
      ],
      "stateMutability": "nonpayable",
      "type": "function"
    },
    {
      "inputs": [],
      "name": "withdrawETH",
      "outputs": [],
      "stateMutability": "nonpayable",
      "type": "function"
    },
    {
      "stateMutability": "payable",
      "type": "receive"
    }
  ],
  "bytecode": "0x60a060405234801561001057600080fd5b506040516126f43803806126f4833981810160405281019061003291906101d0565b33600360006101000a81548173ffffffffffffffffffffffffffffffffffffffff021916908373ffffffffffffffffffffffffffffffffffffffff160217905550601260ff16600a610084919061035f565b8161008f91906103aa565b60008190555060005460016000600360009054906101000a900473ffffffffffffffffffffffffffffffffffffffff1673ffffffffffffffffffffffffffffffffffffffff1673ffffffffffffffffffffffffffffffffffffffff16815260200190815260200160002081905550600360009054906101000a900473ffffffffffffffffffffffffffffffffffffffff1673ffffffffffffffffffffffffffffffffffffffff16600073ffffffffffffffffffffffffffffffffffffffff167fddf252ad1be2c89b69c2b068fc378daa952ba7f163c4a11628f55a4df523b3ef60005460405161017f91906103fb565b60405180910390a3426080818152505050610416565b600080fd5b6000819050919050565b6101ad8161019a565b81146101b857600080fd5b50565b6000815190506101ca816101a4565b92915050565b6000602082840312156101e6576101e5610195565b5b60006101f4848285016101bb565b91505092915050565b7f4e487b7100000000000000000000000000000000000000000000000000000000600052601160045260246000fd5b60008160011c9050919050565b6000808291508390505b60018511156102835780860481111561025f5761025e6101fd565b5b600185161561026e5780820291505b808102905061027c8561022c565b9450610243565b94509492505050565b60008261029c5760019050610358565b816102aa5760009050610358565b81600181146102c057600281146102ca576102f9565b6001915050610358565b60ff8411156102dc576102db6101fd565b5b8360020a9150848211156102f3576102f26101fd565b5b50610358565b5060208310610133831016604e8410600b841016171561032e5782820a905083811115610329576103286101fd565b5b610358565b61033b8484846001610239565b92509050818404811115610352576103516101fd565b5b81810290505b9392505050565b600061036a8261019a565b91506103758361019a565b92506103a27fffffffffffffffffffffffffffffffffffffffffffffffffffffffffffffffff848461028c565b905092915050565b60006103b58261019a565b91506103c08361019a565b92508282026103ce8161019a565b915082820484148315176103e5576103e46101fd565b5b5092915050565b6103f58161019a565b82525050565b600060208201905061041060008301846103ec565b92915050565b6080516122ae610446600039600081816104e00152818161093701528181610a020152610f7501526122ae6000f3fe60806040526004361061012e5760003560e01c806388f8acde116100ab578063a9059cbb1161006f578063a9059cbb146103e9578063d0febe4c14610426578063dd62ed3e14610430578063e086e5ec1461046d578063e646350d14610484578063eb91d37e146104af5761013d565b806388f8acde146103265780638b83fb9f146103515780638da5cb5b1461037c57806395d89b41146103a7578063a41d3594146103d25761013d565b8063313ce567116100f2578063313ce5671461023d57806363b20117146102685780636bf870bf146102935780636d79207c146102be57806370a08231146102e95761013d565b806306fdde0314610142578063095ea7b31461016d57806318160ddd146101aa5780631cbaee2d146101d557806323b872dd146102005761013d565b3661013d5761013b6104da565b005b600080fd5b34801561014e57600080fd5b506101576109a7565b60405161016491906114c0565b60405180910390f35b34801561017957600080fd5b50610194600480360381019061018f919061157b565b6109e0565b6040516101a191906115d6565b60405180910390f35b3480156101b657600080fd5b506101bf6109f7565b6040516101cc9190611600565b60405180910390f35b3480156101e157600080fd5b506101ea610a00565b6040516101f79190611600565b60405180910390f35b34801561020c57600080fd5b506102276004803603810190610222919061161b565b610a24565b60405161023491906115d6565b60405180910390f35b34801561024957600080fd5b50610252610b16565b60405161025f919061168a565b60405180910390f35b34801561027457600080fd5b5061027d610b1b565b60405161028a9190611600565b60405180910390f35b34801561029f57600080fd5b506102a8610b21565b6040516102b59190611600565b60405180910390f35b3480156102ca57600080fd5b506102d3610b2d565b6040516102e09190611600565b60405180910390f35b3480156102f557600080fd5b50610310600480360381019061030b91906116a5565b610b34565b60405161031d9190611600565b60405180910390f35b34801561033257600080fd5b5061033b610b7d565b6040516103489190611600565b60405180910390f35b34801561035d57600080fd5b50610366610b89565b6040516103739190611600565b60405180910390f35b34801561038857600080fd5b50610391610b8e565b60405161039e91906116e1565b60405180910390f35b3480156103b357600080fd5b506103bc610bb4565b6040516103c991906114c0565b60405180910390f35b3480156103de57600080fd5b506103e7610bed565b005b3480156103f557600080fd5b50610410600480360381019061040b919061157b565b610cc2565b60405161041d91906115d6565b60405180910390f35b61042e6104da565b005b34801561043c57600080fd5b50610457600480360381019061045291906116fc565b610cd9565b6040516104649190611600565b60405180910390f35b34801561047957600080fd5b50610482610d60565b005b34801561049057600080fd5b50610499610f14565b6040516104a69190611600565b60405180910390f35b3480156104bb57600080fd5b506104c4610f51565b6040516104d19190611600565b60405180910390f35b62278d007f0000000000000000000000000000000000000000000000000000000000000000610509919061176b565b42111561054b576040517f08c379a0000000000000000000000000000000000000000000000000000000008152600401610542906117eb565b60405180910390fd5b6000610555610f14565b9050806004541061059b576040517f08c379a000000000000000000000000000000000000000000000000000000000815260040161059290611857565b60405180910390fd5b60006105a5610f51565b9050600081116105ea576040517f08c379a00000000000000000000000000000000000000000000000000000000081526004016105e1906118e9565b60405180910390fd5b6000341161062d576040517f08c379a000000000000000000000000000000000000000000000000000000000815260040161062490611955565b60405180910390fd5b6000813461063b91906119a4565b905060008111610680576040517f08c379a000000000000000000000000000000000000000000000000000000000815260040161067790611a47565b60405180910390fd5b6000600454846106909190611a67565b90506000829050818111156106a3578190505b600084826106b19190611a9b565b9050600081346106c19190611a67565b90506000601260ff16600a6106d69190611c10565b846106e19190611a9b565b90508060016000600360009054906101000a900473ffffffffffffffffffffffffffffffffffffffff1673ffffffffffffffffffffffffffffffffffffffff1673ffffffffffffffffffffffffffffffffffffffff16815260200190815260200160002060008282546107549190611a67565b9250508190555080600160003373ffffffffffffffffffffffffffffffffffffffff1673ffffffffffffffffffffffffffffffffffffffff16815260200190815260200160002060008282546107aa919061176b565b9250508190555083600460008282546107c3919061176b565b925050819055503373ffffffffffffffffffffffffffffffffffffffff16600360009054906101000a900473ffffffffffffffffffffffffffffffffffffffff1673ffffffffffffffffffffffffffffffffffffffff167fddf252ad1be2c89b69c2b068fc378daa952ba7f163c4a11628f55a4df523b3ef836040516108499190611600565b60405180910390a33373ffffffffffffffffffffffffffffffffffffffff167f8fafebcaf9d154343dad25669bfa277f4fbacd7ac6b0c4fed522580e040a0f338289604051610899929190611c5b565b60405180910390a260008211156108f2573373ffffffffffffffffffffffffffffffffffffffff166108fc839081150290604051600060405180830381858888f193505050501580156108f0573d6000803e3d6000fd5b505b8760045410610931577f613fc282e921a4110f802f631a6c94c1edd1bb35891612a7628f0b2689e3aa5e60405161092890611cd0565b60405180910390a15b62278d007f0000000000000000000000000000000000000000000000000000000000000000610960919061176b565b42111561099d577f613fc282e921a4110f802f631a6c94c1edd1bb35891612a7628f0b2689e3aa5e60405161099490611d3c565b60405180910390a15b5050505050505050565b6040518060400160405280600e81526020017f47726f757020313120546f6b656e00000000000000000000000000000000000081525081565b60006109ed338484610ff1565b6001905092915050565b60008054905090565b7f000000000000000000000000000000000000000000000000000000000000000081565b600080600260008673ffffffffffffffffffffffffffffffffffffffff1673ffffffffffffffffffffffffffffffffffffffff16815260200190815260200160002060003373ffffffffffffffffffffffffffffffffffffffff1673ffffffffffffffffffffffffffffffffffffffff16815260200190815260200160002054905082811015610ae9576040517f08c379a0000000000000000000000000000000000000000000000000000000008152600401610ae090611dce565b60405180910390fd5b610af48585856111ba565b610b0a85338584610b059190611a67565b610ff1565b60019150509392505050565b601281565b60045481565b678ac7230489e8000081565b62278d0081565b6000600160008373ffffffffffffffffffffffffffffffffffffffff1673ffffffffffffffffffffffffffffffffffffffff168152602001908152602001600020549050919050565b674563918244f4000081565b603281565b600360009054906101000a900473ffffffffffffffffffffffffffffffffffffffff1681565b6040518060400160405280600581526020017f475250313100000000000000000000000000000000000000000000000000000081525081565b600360009054906101000a900473ffffffffffffffffffffffffffffffffffffffff1673ffffffffffffffffffffffffffffffffffffffff163373ffffffffffffffffffffffffffffffffffffffff1614610c7d576040517f08c379a0000000000000000000000000000000000000000000000000000000008152600401610c7490611e3a565b60405180910390fd5b610c85610f14565b6004819055507f613fc282e921a4110f802f631a6c94c1edd1bb35891612a7628f0b2689e3aa5e604051610cb890611ea6565b60405180910390a1565b6000610ccf3384846111ba565b6001905092915050565b6000600260008473ffffffffffffffffffffffffffffffffffffffff1673ffffffffffffffffffffffffffffffffffffffff16815260200190815260200160002060008373ffffffffffffffffffffffffffffffffffffffff1673ffffffffffffffffffffffffffffffffffffffff16815260200190815260200160002054905092915050565b600360009054906101000a900473ffffffffffffffffffffffffffffffffffffffff1673ffffffffffffffffffffffffffffffffffffffff163373ffffffffffffffffffffffffffffffffffffffff1614610df0576040517f08c379a0000000000000000000000000000000000000000000000000000000008152600401610de790611f12565b60405180910390fd5b600047905060008111610e38576040517f08c379a0000000000000000000000000000000000000000000000000000000008152600401610e2f90611f7e565b60405180910390fd5b600360009054906101000a900473ffffffffffffffffffffffffffffffffffffffff1673ffffffffffffffffffffffffffffffffffffffff166108fc829081150290604051600060405180830381858888f19350505050158015610ea0573d6000803e3d6000fd5b50600360009054906101000a900473ffffffffffffffffffffffffffffffffffffffff1673ffffffffffffffffffffffffffffffffffffffff167f94b2de810873337ed265c5f8cf98c9cffefa06b8607f9a2f1fbaebdfbcfbef1c82604051610f099190611600565b60405180910390a250565b600060646032601260ff16600a610f2b9190611c10565b600054610f3891906119a4565b610f429190611a9b565b610f4c91906119a4565b905090565b600080610f5c610f14565b90506000600282610f6d91906119a4565b905062278d007f0000000000000000000000000000000000000000000000000000000000000000610f9e919061176b565b421115610fb057600092505050610fee565b8160045410610fc457600092505050610fee565b806004541015610fe057674563918244f4000092505050610fee565b678ac7230489e80000925050505b90565b600073ffffffffffffffffffffffffffffffffffffffff168373ffffffffffffffffffffffffffffffffffffffff1603611060576040517f08c379a000000000000000000000000000000000000000000000000000000000815260040161105790612010565b60405180910390fd5b600073ffffffffffffffffffffffffffffffffffffffff168273ffffffffffffffffffffffffffffffffffffffff16036110cf576040517f08c379a00000000000000000000000000000000000000000000000000000000081526004016110c6906120a2565b60405180910390fd5b80600260008573ffffffffffffffffffffffffffffffffffffffff1673ffffffffffffffffffffffffffffffffffffffff16815260200190815260200160002060008473ffffffffffffffffffffffffffffffffffffffff1673ffffffffffffffffffffffffffffffffffffffff168152602001908152602001600020819055508173ffffffffffffffffffffffffffffffffffffffff168373ffffffffffffffffffffffffffffffffffffffff167f8c5be1e5ebec7d5bd14f71427d1e84f3dd0314c0f7b2291e5b200ac8c7c3b925836040516111ad9190611600565b60405180910390a3505050565b600073ffffffffffffffffffffffffffffffffffffffff168373ffffffffffffffffffffffffffffffffffffffff1603611229576040517f08c379a000000000000000000000000000000000000000000000000000000000815260040161122090612134565b60405180910390fd5b600073ffffffffffffffffffffffffffffffffffffffff168273ffffffffffffffffffffffffffffffffffffffff1603611298576040517f08c379a000000000000000000000000000000000000000000000000000000000815260040161128f906121c6565b60405180910390fd5b80600160008573ffffffffffffffffffffffffffffffffffffffff1673ffffffffffffffffffffffffffffffffffffffff16815260200190815260200160002054101561131a576040517f08c379a000000000000000000000000000000000000000000000000000000000815260040161131190612258565b60405180910390fd5b80600160008573ffffffffffffffffffffffffffffffffffffffff1673ffffffffffffffffffffffffffffffffffffffff16815260200190815260200160002060008282546113699190611a67565b9250508190555080600160008473ffffffffffffffffffffffffffffffffffffffff1673ffffffffffffffffffffffffffffffffffffffff16815260200190815260200160002060008282546113bf919061176b565b925050819055508173ffffffffffffffffffffffffffffffffffffffff168373ffffffffffffffffffffffffffffffffffffffff167fddf252ad1be2c89b69c2b068fc378daa952ba7f163c4a11628f55a4df523b3ef836040516114239190611600565b60405180910390a3505050565b600081519050919050565b600082825260208201905092915050565b60005b8381101561146a57808201518184015260208101905061144f565b60008484015250505050565b6000601f19601f8301169050919050565b600061149282611430565b61149c818561143b565b93506114ac81856020860161144c565b6114b581611476565b840191505092915050565b600060208201905081810360008301526114da8184611487565b905092915050565b600080fd5b600073ffffffffffffffffffffffffffffffffffffffff82169050919050565b6000611512826114e7565b9050919050565b61152281611507565b811461152d57600080fd5b50565b60008135905061153f81611519565b92915050565b6000819050919050565b61155881611545565b811461156357600080fd5b50565b6000813590506115758161154f565b92915050565b60008060408385031215611592576115916114e2565b5b60006115a085828601611530565b92505060206115b185828601611566565b9150509250929050565b60008115159050919050565b6115d0816115bb565b82525050565b60006020820190506115eb60008301846115c7565b92915050565b6115fa81611545565b82525050565b600060208201905061161560008301846115f1565b92915050565b600080600060608486031215611634576116336114e2565b5b600061164286828701611530565b935050602061165386828701611530565b925050604061166486828701611566565b9150509250925092565b600060ff82169050919050565b6116848161166e565b82525050565b600060208201905061169f600083018461167b565b92915050565b6000602082840312156116bb576116ba6114e2565b5b60006116c984828501611530565b91505092915050565b6116db81611507565b82525050565b60006020820190506116f660008301846116d2565b92915050565b60008060408385031215611713576117126114e2565b5b600061172185828601611530565b925050602061173285828601611530565b9150509250929050565b7f4e487b7100000000000000000000000000000000000000000000000000000000600052601160045260246000fd5b600061177682611545565b915061178183611545565b92508282019050808211156117995761179861173c565b5b92915050565b7f53616c6520656e6465642064756520746f2074696d65206c696d697400000000600082015250565b60006117d5601c8361143b565b91506117e08261179f565b602082019050919050565b60006020820190508181036000830152611804816117c8565b9050919050565b7f416c6c20746f6b656e7320666f722073616c652061726520736f6c64206f7574600082015250565b600061184160208361143b565b915061184c8261180b565b602082019050919050565b6000602082019050818103600083015261187081611834565b9050919050565b7f53616c65206973206e6f7420616374697665206f72207072696365206973207a60008201527f65726f0000000000000000000000000000000000000000000000000000000000602082015250565b60006118d360238361143b565b91506118de82611877565b604082019050919050565b60006020820190508181036000830152611902816118c6565b9050919050565b7f53656e642045544820746f2062757920746f6b656e7300000000000000000000600082015250565b600061193f60168361143b565b915061194a82611909565b602082019050919050565b6000602082019050818103600083015261196e81611932565b9050919050565b7f4e487b7100000000000000000000000000000000000000000000000000000000600052601260045260246000fd5b60006119af82611545565b91506119ba83611545565b9250826119ca576119c9611975565b5b828204905092915050565b7f496e73756666696369656e742045544820666f72206f6e6520746f6b656e206160008201527f742063757272656e742070726963650000000000000000000000000000000000602082015250565b6000611a31602f8361143b565b9150611a3c826119d5565b604082019050919050565b60006020820190508181036000830152611a6081611a24565b9050919050565b6000611a7282611545565b9150611a7d83611545565b9250828203905081811115611a9557611a9461173c565b5b92915050565b6000611aa682611545565b9150611ab183611545565b9250828202611abf81611545565b91508282048414831517611ad657611ad561173c565b5b5092915050565b60008160011c9050919050565b6000808291508390505b6001851115611b3457808604811115611b1057611b0f61173c565b5b6001851615611b1f5780820291505b8081029050611b2d85611add565b9450611af4565b94509492505050565b600082611b4d5760019050611c09565b81611b5b5760009050611c09565b8160018114611b715760028114611b7b57611baa565b6001915050611c09565b60ff841115611b8d57611b8c61173c565b5b8360020a915084821115611ba457611ba361173c565b5b50611c09565b5060208310610133831016604e8410600b8410161715611bdf5782820a905083811115611bda57611bd961173c565b5b611c09565b611bec8484846001611aea565b92509050818404811115611c0357611c0261173c565b5b81810290505b9392505050565b6000611c1b82611545565b9150611c2683611545565b9250611c537fffffffffffffffffffffffffffffffffffffffffffffffffffffffffffffffff8484611b3d565b905092915050565b6000604082019050611c7060008301856115f1565b611c7d60208301846115f1565b9392505050565b7f416c6c20746f6b656e7320736f6c640000000000000000000000000000000000600082015250565b6000611cba600f8361143b565b9150611cc582611c84565b602082019050919050565b60006020820190508181036000830152611ce981611cad565b9050919050565b7f4475726174696f6e207265616368656400000000000000000000000000000000600082015250565b6000611d2660108361143b565b9150611d3182611cf0565b602082019050919050565b60006020820190508181036000830152611d5581611d19565b9050919050565b7f45524332303a207472616e7366657220616d6f756e742065786365656473206160008201527f6c6c6f77616e6365000000000000000000000000000000000000000000000000602082015250565b6000611db860288361143b565b9150611dc382611d5c565b604082019050919050565b60006020820190508181036000830152611de781611dab565b9050919050565b7f4f6e6c79206f776e65722063616e20656e642073616c65206d616e75616c6c79600082015250565b6000611e2460208361143b565b9150611e2f82611dee565b602082019050919050565b60006020820190508181036000830152611e5381611e17565b9050919050565b7f4d616e75616c6c7920656e646564206279206f776e6572000000000000000000600082015250565b6000611e9060178361143b565b9150611e9b82611e5a565b602082019050919050565b60006020820190508181036000830152611ebf81611e83565b9050919050565b7f4f6e6c79206f776e65722063616e207769746864726177204554480000000000600082015250565b6000611efc601b8361143b565b9150611f0782611ec6565b602082019050919050565b60006020820190508181036000830152611f2b81611eef565b9050919050565b7f4e6f2045544820746f2077697468647261770000000000000000000000000000600082015250565b6000611f6860128361143b565b9150611f7382611f32565b602082019050919050565b60006020820190508181036000830152611f9781611f5b565b9050919050565b7f45524332303a20617070726f76652066726f6d20746865207a65726f2061646460008201527f7265737300000000000000000000000000000000000000000000000000000000602082015250565b6000611ffa60248361143b565b915061200582611f9e565b604082019050919050565b6000602082019050818103600083015261202981611fed565b9050919050565b7f45524332303a20617070726f766520746f20746865207a65726f20616464726560008201527f7373000000000000000000000000000000000000000000000000000000000000602082015250565b600061208c60228361143b565b915061209782612030565b604082019050919050565b600060208201905081810360008301526120bb8161207f565b9050919050565b7f45524332303a207472616e736665722066726f6d20746865207a65726f20616460008201527f6472657373000000000000000000000000000000000000000000000000000000602082015250565b600061211e60258361143b565b9150612129826120c2565b604082019050919050565b6000602082019050818103600083015261214d81612111565b9050919050565b7f45524332303a207472616e7366657220746f20746865207a65726f206164647260008201527f6573730000000000000000000000000000000000000000000000000000000000602082015250565b60006121b060238361143b565b91506121bb82612154565b604082019050919050565b600060208201905081810360008301526121df816121a3565b9050919050565b7f45524332303a207472616e7366657220616d6f756e742065786365656473206260008201527f616c616e63650000000000000000000000000000000000000000000000000000602082015250565b600061224260268361143b565b915061224d826121e6565b604082019050919050565b6000602082019050818103600083015261227181612235565b905091905056fea2646970667358221220724db644ca4012252937065edd8d030946d538344496386bfd33ba2dbe5515bb64736f6c634300081a0033",
  "linkReferences": {},
  "deployedLinkReferences": {}
}